{
  "_format": "hh-sol-artifact-1",
  "contractName": "Mixer",
  "sourceName": "contracts/Mixer.sol",
  "abi": [
    {
      "inputs": [
        {
          "internalType": "uint256",
          "name": "n",
          "type": "uint256"
        }
      ],
      "stateMutability": "nonpayable",
      "type": "constructor"
    },
    {
      "anonymous": false,
      "inputs": [
        {
          "indexed": false,
          "internalType": "uint256",
          "name": "commitment",
          "type": "uint256"
        },
        {
          "indexed": false,
          "internalType": "uint256",
          "name": "leafIndex",
          "type": "uint256"
        },
        {
          "indexed": false,
          "internalType": "uint256",
          "name": "timestamp",
          "type": "uint256"
        }
      ],
      "name": "Deposit",
      "type": "event"
    },
    {
      "anonymous": false,
      "inputs": [
        {
          "indexed": false,
          "internalType": "address",
          "name": "to",
          "type": "address"
        },
        {
          "indexed": false,
          "internalType": "uint256",
          "name": "nullifierHash",
          "type": "uint256"
        }
      ],
      "name": "Withdrawal",
      "type": "event"
    },
    {
      "inputs": [],
      "name": "ROOT_HISTORY_SIZE",
      "outputs": [
        {
          "internalType": "uint32",
          "name": "",
          "type": "uint32"
        }
      ],
      "stateMutability": "view",
      "type": "function"
    },
    {
      "inputs": [
        {
          "internalType": "uint256",
          "name": "",
          "type": "uint256"
        }
      ],
      "name": "commitments",
      "outputs": [
        {
          "internalType": "bool",
          "name": "",
          "type": "bool"
        }
      ],
      "stateMutability": "view",
      "type": "function"
    },
    {
      "inputs": [
        {
          "internalType": "uint256",
          "name": "_commitment",
          "type": "uint256"
        }
      ],
      "name": "deposit",
      "outputs": [],
      "stateMutability": "payable",
      "type": "function"
    },
    {
      "inputs": [],
      "name": "depositAmount",
      "outputs": [
        {
          "internalType": "uint256",
          "name": "",
          "type": "uint256"
        }
      ],
      "stateMutability": "view",
      "type": "function"
    },
    {
      "inputs": [],
      "name": "getHashes",
      "outputs": [
        {
          "internalType": "uint256[]",
          "name": "",
          "type": "uint256[]"
        }
      ],
      "stateMutability": "view",
      "type": "function"
    },
    {
      "inputs": [],
      "name": "getIndex",
      "outputs": [
        {
          "internalType": "uint256",
          "name": "",
          "type": "uint256"
        }
      ],
      "stateMutability": "view",
      "type": "function"
    },
    {
      "inputs": [],
      "name": "getRoot",
      "outputs": [
        {
          "internalType": "uint256",
          "name": "",
          "type": "uint256"
        }
      ],
      "stateMutability": "view",
      "type": "function"
    },
    {
      "inputs": [
        {
          "internalType": "uint256",
          "name": "hashedLeaf",
          "type": "uint256"
        }
      ],
      "name": "insertLeaf",
      "outputs": [
        {
          "internalType": "uint256",
          "name": "",
          "type": "uint256"
        }
      ],
      "stateMutability": "nonpayable",
      "type": "function"
    },
    {
      "inputs": [
        {
          "internalType": "uint256",
          "name": "",
          "type": "uint256"
        }
      ],
      "name": "nullifierHashes",
      "outputs": [
        {
          "internalType": "bool",
          "name": "",
          "type": "bool"
        }
      ],
      "stateMutability": "view",
      "type": "function"
    },
    {
      "inputs": [
        {
          "internalType": "uint256",
          "name": "",
          "type": "uint256"
        }
      ],
      "name": "roots",
      "outputs": [
        {
          "internalType": "uint256",
          "name": "",
          "type": "uint256"
        }
      ],
      "stateMutability": "view",
      "type": "function"
    },
    {
      "inputs": [
        {
          "internalType": "uint256[2]",
          "name": "a",
          "type": "uint256[2]"
        },
        {
          "internalType": "uint256[2][2]",
          "name": "b",
          "type": "uint256[2][2]"
        },
        {
          "internalType": "uint256[2]",
          "name": "c",
          "type": "uint256[2]"
        },
        {
          "internalType": "uint256[2]",
          "name": "input",
          "type": "uint256[2]"
        }
      ],
      "name": "verifyLeaf",
      "outputs": [
        {
          "internalType": "bool",
          "name": "",
          "type": "bool"
        }
      ],
      "stateMutability": "view",
      "type": "function"
    },
    {
      "inputs": [
        {
          "internalType": "uint256[2]",
          "name": "a",
          "type": "uint256[2]"
        },
        {
          "internalType": "uint256[2][2]",
          "name": "b",
          "type": "uint256[2][2]"
        },
        {
          "internalType": "uint256[2]",
          "name": "c",
          "type": "uint256[2]"
        },
        {
          "internalType": "uint256[2]",
          "name": "input",
          "type": "uint256[2]"
        }
      ],
      "name": "verifyProof",
      "outputs": [
        {
          "internalType": "bool",
          "name": "r",
          "type": "bool"
        }
      ],
      "stateMutability": "view",
      "type": "function"
    },
    {
      "inputs": [
        {
          "internalType": "address payable",
          "name": "to",
          "type": "address"
        },
        {
          "internalType": "uint256",
          "name": "fee",
          "type": "uint256"
        },
        {
          "internalType": "uint256[2]",
          "name": "a",
          "type": "uint256[2]"
        },
        {
          "internalType": "uint256[2][2]",
          "name": "b",
          "type": "uint256[2][2]"
        },
        {
          "internalType": "uint256[2]",
          "name": "c",
          "type": "uint256[2]"
        },
        {
          "internalType": "uint256[2]",
          "name": "input",
          "type": "uint256[2]"
        }
      ],
      "name": "withdraw",
      "outputs": [
        {
          "internalType": "bool",
          "name": "",
          "type": "bool"
        }
      ],
      "stateMutability": "payable",
      "type": "function"
    }
  ],
  "bytecode": "0x6080604052600060035567016345785d8a00006005553480156200002257600080fd5b5060405162003f1938038062003f19833981810160405281019062000048919062000495565b8060008160026200005a919062000689565b905060005b818110156200009c57600080806001815401808255809150506001900390600052602060002001600090919091909150558060010190506200005f565b5060006001600283620000b09190620005f6565b620000bc919062000827565b90506000600283620000cf9190620005f6565b905060005b818110156200026657600073__$86e0c54df1042e28bf2dd20ccf184dc428$__6329a5f2f660405180604001604052806000600287620001159190620007c6565b815481106200014d577f4e487b7100000000000000000000000000000000000000000000000000000000600052603260045260246000fd5b9060005260206000200154815260200160006001600288620001709190620007c6565b6200017c919062000599565b81548110620001b4577f4e487b7100000000000000000000000000000000000000000000000000000000600052603260045260246000fd5b90600052602060002001548152506040518263ffffffff1660e01b8152600401620001e091906200054f565b60206040518083038186803b158015620001f957600080fd5b505af41580156200020e573d6000803e3d6000fd5b505050506040513d601f19601f8201168201806040525081019062000234919062000495565b9080600181540180825580915050600190039060005260206000200160009091909190915055806001019050620000d4565b5060008190505b82826200027b919062000599565b8110156200040c57600073__$86e0c54df1042e28bf2dd20ccf184dc428$__6329a5f2f660405180604001604052806000600287620002bb9190620007c6565b81548110620002f3577f4e487b7100000000000000000000000000000000000000000000000000000000600052603260045260246000fd5b9060005260206000200154815260200160006001600288620003169190620007c6565b62000322919062000599565b815481106200035a577f4e487b7100000000000000000000000000000000000000000000000000000000600052603260045260246000fd5b90600052602060002001548152506040518263ffffffff1660e01b81526004016200038691906200054f565b60206040518083038186803b1580156200039f57600080fd5b505af4158015620003b4573d6000803e3d6000fd5b505050506040513d601f19601f82011682018060405250810190620003da919062000495565b90806001815401808255809150506001900390600052602060002001600090919091909150558060010190506200026d565b5083600181905550600060016000805490506200042a919062000827565b8154811062000462577f4e487b7100000000000000000000000000000000000000000000000000000000600052603260045260246000fd5b90600052602060002001546004819055505050505050620008f1565b6000815190506200048f81620008d7565b92915050565b600060208284031215620004a857600080fd5b6000620004b8848285016200047e565b91505092915050565b6000620004cf83836200053e565b60208301905092915050565b620004e68162000576565b620004f281846200058e565b9250620004ff826200056c565b8060005b83811015620005365781516200051a8782620004c1565b9650620005278362000581565b92505060018101905062000503565b505050505050565b620005498162000862565b82525050565b6000604082019050620005666000830184620004db565b92915050565b6000819050919050565b600060029050919050565b6000602082019050919050565b600081905092915050565b6000620005a68262000862565b9150620005b38362000862565b9250827fffffffffffffffffffffffffffffffffffffffffffffffffffffffffffffffff03821115620005eb57620005ea6200086c565b5b828201905092915050565b6000620006038262000862565b9150620006108362000862565b9250826200062357620006226200089b565b5b828204905092915050565b6000808291508390505b600185111562000680578086048111156200065857620006576200086c565b5b6001851615620006685780820291505b80810290506200067885620008ca565b945062000638565b94509492505050565b6000620006968262000862565b9150620006a38362000862565b9250620006d27fffffffffffffffffffffffffffffffffffffffffffffffffffffffffffffffff8484620006da565b905092915050565b600082620006ec5760019050620007bf565b81620006fc5760009050620007bf565b8160018114620007155760028114620007205762000756565b6001915050620007bf565b60ff8411156200073557620007346200086c565b5b8360020a9150848211156200074f576200074e6200086c565b5b50620007bf565b5060208310610133831016604e8410600b8410161715620007905782820a9050838111156200078a57620007896200086c565b5b620007bf565b6200079f84848460016200062e565b92509050818404811115620007b957620007b86200086c565b5b81810290505b9392505050565b6000620007d38262000862565b9150620007e08362000862565b9250817fffffffffffffffffffffffffffffffffffffffffffffffffffffffffffffffff04831182151516156200081c576200081b6200086c565b5b828202905092915050565b6000620008348262000862565b9150620008418362000862565b9250828210156200085757620008566200086c565b5b828203905092915050565b6000819050919050565b7f4e487b7100000000000000000000000000000000000000000000000000000000600052601160045260246000fd5b7f4e487b7100000000000000000000000000000000000000000000000000000000600052601260045260246000fd5b60008160011c9050919050565b620008e28162000862565b8114620008ee57600080fd5b50565b61361880620009016000396000f3fe6080604052600436106100c25760003560e01c806381045ead1161007f578063c2b40ae411610059578063c2b40ae414610276578063cd87a3b4146102b3578063f5c9d69e146102de578063fa1825a11461031b576100c2565b806381045ead146101f2578063b6b55f251461021d578063b720243414610239576100c2565b80630101fc6d146100c75780631f79a1e9146100f7578063419759f5146101345780634245d48e1461015f57806349ce89971461018a5780635ca1e165146101c7575b600080fd5b6100e160048036038101906100dc919061291c565b610358565b6040516100ee9190612ed0565b60405180910390f35b34801561010357600080fd5b5061011e60048036038101906101199190612a0d565b6105a1565b60405161012b9190612ed0565b60405180910390f35b34801561014057600080fd5b506101496105c1565b604051610156919061302b565b60405180910390f35b34801561016b57600080fd5b506101746105c7565b6040516101819190612eae565b60405180910390f35b34801561019657600080fd5b506101b160048036038101906101ac9190612a0d565b61061f565b6040516101be9190612ed0565b60405180910390f35b3480156101d357600080fd5b506101dc61063f565b6040516101e9919061302b565b60405180910390f35b3480156101fe57600080fd5b50610207610649565b604051610214919061302b565b60405180910390f35b61023760048036038101906102329190612a0d565b610653565b005b34801561024557600080fd5b50610260600480360381019061025b9190612a0d565b610770565b60405161026d919061302b565b60405180910390f35b34801561028257600080fd5b5061029d60048036038101906102989190612a0d565b610c6a565b6040516102aa919061302b565b60405180910390f35b3480156102bf57600080fd5b506102c8610c82565b6040516102d5919061307d565b60405180910390f35b3480156102ea57600080fd5b50610305600480360381019061030091906129a8565b610c87565b6040516103129190612ed0565b60405180910390f35b34801561032757600080fd5b50610342600480360381019061033d91906129a8565b61113b565b60405161034f9190612ed0565b60405180910390f35b600061036685858585610c87565b80156103ce575060066000836001600281106103ab577f4e487b7100000000000000000000000000000000000000000000000000000000600052603260045260246000fd5b6020020151815260200190815260200160002060009054906101000a900460ff16155b61040d576040517f08c379a000000000000000000000000000000000000000000000000000000000815260040161040490612fab565b60405180910390fd5b6001600660008460016002811061044d577f4e487b7100000000000000000000000000000000000000000000000000000000600052603260045260246000fd5b6020020151815260200190815260200160002060006101000a81548160ff0219169083151502179055508673ffffffffffffffffffffffffffffffffffffffff166108fc8760055461049f91906133de565b9081150290604051600060405180830381858888f193505050501580156104ca573d6000803e3d6000fd5b50600086111561051c573373ffffffffffffffffffffffffffffffffffffffff166108fc879081150290604051600060405180830381858888f1935050505015801561051a573d6000803e3d6000fd5b505b7f7fcf532c15f0a6db0bd6d0e038bea71d30d808c7d98cb3bf7268a95bf5081b658783600160028110610578577f4e487b7100000000000000000000000000000000000000000000000000000000600052603260045260246000fd5b602002015160405161058b929190612e6a565b60405180910390a1600190509695505050505050565b60066020528060005260406000206000915054906101000a900460ff1681565b60055481565b6060600080548060200260200160405190810160405280929190818152602001828054801561061557602002820191906000526020600020905b815481526020019060010190808311610601575b5050505050905090565b60076020528060005260406000206000915054906101000a900460ff1681565b6000600454905090565b6000600354905090565b6007600082815260200190815260200160002060009054906101000a900460ff16156106b4576040517f08c379a00000000000000000000000000000000000000000000000000000000081526004016106ab90612f0b565b60405180910390fd5b60055434146106f8576040517f08c379a00000000000000000000000000000000000000000000000000000000081526004016106ef90612eeb565b60405180910390fd5b600061070382610770565b905060016007600084815260200190815260200160002060006101000a81548160ff0219169083151502179055507f33da4f9b82b3e18a281ca2cabbe2f076925692abb593b7ea3f850009e8ec977082824260405161076493929190613046565b60405180910390a15050565b600060015460026107819190613266565b6001600354610790919061318c565b14156107d1576040517f08c379a00000000000000000000000000000000000000000000000000000000081526004016107c890612feb565b60405180910390fd5b8160006003548154811061080e577f4e487b7100000000000000000000000000000000000000000000000000000000600052603260045260246000fd5b90600052602060002001819055506000600154600261082d9190613266565b90506000600160028361084091906131e2565b61084a91906133de565b9050600060028361085b91906131e2565b905060005b81811015610a0d5773__$86e0c54df1042e28bf2dd20ccf184dc428$__6329a5f2f66040518060400160405280600060028661089c9190613384565b815481106108d3577f4e487b7100000000000000000000000000000000000000000000000000000000600052603260045260246000fd5b90600052602060002001548152602001600060016002876108f49190613384565b6108fe919061318c565b81548110610935577f4e487b7100000000000000000000000000000000000000000000000000000000600052603260045260246000fd5b90600052602060002001548152506040518263ffffffff1660e01b815260040161095f9190612e93565b60206040518083038186803b15801561097757600080fd5b505af415801561098b573d6000803e3d6000fd5b505050506040513d601f19601f820116820180604052508101906109af9190612a36565b600082866109bd919061318c565b815481106109f4577f4e487b7100000000000000000000000000000000000000000000000000000000600052603260045260246000fd5b9060005260206000200181905550806001019050610860565b5060008190505b8282610a20919061318c565b811015610bcc5773__$86e0c54df1042e28bf2dd20ccf184dc428$__6329a5f2f660405180604001604052806000600286610a5b9190613384565b81548110610a92577f4e487b7100000000000000000000000000000000000000000000000000000000600052603260045260246000fd5b9060005260206000200154815260200160006001600287610ab39190613384565b610abd919061318c565b81548110610af4577f4e487b7100000000000000000000000000000000000000000000000000000000600052603260045260246000fd5b90600052602060002001548152506040518263ffffffff1660e01b8152600401610b1e9190612e93565b60206040518083038186803b158015610b3657600080fd5b505af4158015610b4a573d6000803e3d6000fd5b505050506040513d601f19601f82011682018060405250810190610b6e9190612a36565b60008286610b7c919061318c565b81548110610bb3577f4e487b7100000000000000000000000000000000000000000000000000000000600052603260045260246000fd5b9060005260206000200181905550806001019050610a14565b5060006001600080549050610be191906133de565b81548110610c18577f4e487b7100000000000000000000000000000000000000000000000000000000600052603260045260246000fd5b90600052602060002001546004819055506004546002600060035481526020019081526020016000208190555060036000815480929190610c58906134a0565b91905055506003549350505050919050565b60026020528060005260406000206000915090505481565b601e81565b6000610c91612687565b604051806040016040528087600060028110610cd6577f4e487b7100000000000000000000000000000000000000000000000000000000600052603260045260246000fd5b6020020151815260200187600160028110610d1a577f4e487b7100000000000000000000000000000000000000000000000000000000600052603260045260246000fd5b602002015181525081600001819052506040518060400160405280604051806040016040528088600060028110610d7a577f4e487b7100000000000000000000000000000000000000000000000000000000600052603260045260246000fd5b6020020151600060028110610db8577f4e487b7100000000000000000000000000000000000000000000000000000000600052603260045260246000fd5b6020020151815260200188600060028110610dfc577f4e487b7100000000000000000000000000000000000000000000000000000000600052603260045260246000fd5b6020020151600160028110610e3a577f4e487b7100000000000000000000000000000000000000000000000000000000600052603260045260246000fd5b60200201518152508152602001604051806040016040528088600160028110610e8c577f4e487b7100000000000000000000000000000000000000000000000000000000600052603260045260246000fd5b6020020151600060028110610eca577f4e487b7100000000000000000000000000000000000000000000000000000000600052603260045260246000fd5b6020020151815260200188600160028110610f0e577f4e487b7100000000000000000000000000000000000000000000000000000000600052603260045260246000fd5b6020020151600160028110610f4c577f4e487b7100000000000000000000000000000000000000000000000000000000600052603260045260246000fd5b60200201518152508152508160200181905250604051806040016040528085600060028110610fa4577f4e487b7100000000000000000000000000000000000000000000000000000000600052603260045260246000fd5b6020020151815260200185600160028110610fe8577f4e487b7100000000000000000000000000000000000000000000000000000000600052603260045260246000fd5b602002015181525081604001819052506000600267ffffffffffffffff81111561103b577f4e487b7100000000000000000000000000000000000000000000000000000000600052604160045260246000fd5b6040519080825280602002602001820160405280156110695781602001602082028036833780820191505090505b50905060005b600281101561110e578481600281106110b1577f4e487b7100000000000000000000000000000000000000000000000000000000600052603260045260246000fd5b60200201518282815181106110ef577f4e487b7100000000000000000000000000000000000000000000000000000000600052603260045260246000fd5b6020026020010181815250508080611106906134a0565b91505061106f565b50600061111b828461119e565b141561112c57600192505050611133565b6000925050505b949350505050565b600061114985858585610c87565b801561119457506004548260006002811061118d577f4e487b7100000000000000000000000000000000000000000000000000000000600052603260045260246000fd5b6020020151145b9050949350505050565b6000807f30644e72e131a029b85045b68181585d2833e84879b9709143e1f593f0000001905060006111ce611429565b9050806080015151600186516111e4919061318c565b14611224576040517f08c379a000000000000000000000000000000000000000000000000000000000815260040161121b90612f2b565b60405180910390fd5b60006040518060400160405280600081526020016000815250905060005b86518110156113855783878281518110611285577f4e487b7100000000000000000000000000000000000000000000000000000000600052603260045260246000fd5b6020026020010151106112cd576040517f08c379a00000000000000000000000000000000000000000000000000000000081526004016112c490612f6b565b60405180910390fd5b6113708261136b85608001516001856112e6919061318c565b8151811061131d577f4e487b7100000000000000000000000000000000000000000000000000000000600052603260045260246000fd5b60200260200101518a858151811061135e577f4e487b7100000000000000000000000000000000000000000000000000000000600052603260045260246000fd5b602002602001015161193c565b611a8b565b9150808061137d906134a0565b915050611242565b506113d58183608001516000815181106113c8577f4e487b7100000000000000000000000000000000000000000000000000000000600052603260045260246000fd5b6020026020010151611a8b565b905061140b6113e78660000151611c26565b8660200151846000015185602001518587604001518b604001518960600151611ccb565b61141b5760019350505050611423565b600093505050505b92915050565b6114316126ba565b60405180604001604052807f2d4d9aa7e302d9df41749d5507949d05dbea33fbb16c643b22f599a2be6df2e281526020017f14bedd503c37ceb061d8ec60209fe345ce89830a19230301f076caff004d19268152508160000181905250604051806040016040528060405180604001604052807f0967032fcbf776d1afc985f88877f182d38480a653f2decaa9794cbc3bf3060c81526020017f0e187847ad4c798374d0d6732bf501847dd68bc0e071241e0213bc7fc13db7ab815250815260200160405180604001604052807f304cfbd1e08a704a99f5e847d93f8c3caafddec46b7a0d379da69a4d112346a781526020017f1739c1b1a457a8c7313123d24d2f9192f896b7c63eea05a9d57f06547ad0cec88152508152508160200181905250604051806040016040528060405180604001604052807f198e9393920d483a7260bfb731fb5d25f1aa493335a9e71297e485b7aef312c281526020017f1800deef121f1e76426a00665e5c4479674322d4f75edadd46debd5cd992f6ed815250815260200160405180604001604052807f090689d0585ff075ec9e99ad690c3395bc4b313370b38ef355acdadcd122975b81526020017f12c85ea5db8c6deb4aab71808dcb408fe3d1e7690c43d37b4ce6cc0166fa7daa8152508152508160400181905250604051806040016040528060405180604001604052807f304982ab9a8bff750b3968491bcd7d4d7ac379d5d651946184872b9d4f7ce49981526020017f1c5024f41fc791c75c0dfae8766419cec0d6eb67977559094a782bcac0255f0f815250815260200160405180604001604052807f220f2dcbea05c7c9e81eab155799ff089f5806410cab9227bfeec5706c1f314881526020017f1bfac9573cd42f43a678c47350b22b7705b38627f3c41df64b451f2ae248bf228152508152508160600181905250600367ffffffffffffffff81111561171e577f4e487b7100000000000000000000000000000000000000000000000000000000600052604160045260246000fd5b60405190808252806020026020018201604052801561175757816020015b611744612701565b81526020019060019003908161173c5790505b50816080018190525060405180604001604052807f2ae1a2eb12b285923fd60b03d2a96a83e73539ccf490f6906b7779a93317bd5a81526020017e042e4d660154b8cfa99fd0eef83b0bb6064812bf1c8630fc62610fc3da543181525081608001516000815181106117f2577f4e487b7100000000000000000000000000000000000000000000000000000000600052603260045260246000fd5b602002602001018190525060405180604001604052807f2eb8c157454ab94aa9dd8e759d040102371a7f593c8939485ba4fbf8f1ad58e581526020017f18f28227d09c5c9c6ce5fa5ecfdf28b76af76d4ef82f28b267a08b986d5708b58152508160800151600181518110611890577f4e487b7100000000000000000000000000000000000000000000000000000000600052603260045260246000fd5b602002602001018190525060405180604001604052807f0d431bfa7741ab73b62e516ca255f46b39229a4bd951b7af8599501cda8f68c481526020017f14fdb1638fbf7e8fee8f8a2ace8b425f05da55df1cdc67b0f005ed312168eaba815250816080015160028151811061192e577f4e487b7100000000000000000000000000000000000000000000000000000000600052603260045260246000fd5b602002602001018190525090565b611944612701565b61194c61271b565b83600001518160006003811061198b577f4e487b7100000000000000000000000000000000000000000000000000000000600052603260045260246000fd5b6020020181815250508360200151816001600381106119d3577f4e487b7100000000000000000000000000000000000000000000000000000000600052603260045260246000fd5b6020020181815250508281600260038110611a17577f4e487b7100000000000000000000000000000000000000000000000000000000600052603260045260246000fd5b602002018181525050600060608360808460076107d05a03fa90508060008114611a4057611a42565bfe5b5080611a83576040517f08c379a0000000000000000000000000000000000000000000000000000000008152600401611a7a90612f4b565b60405180910390fd5b505092915050565b611a93612701565b611a9b61273d565b836000015181600060048110611ada577f4e487b7100000000000000000000000000000000000000000000000000000000600052603260045260246000fd5b602002018181525050836020015181600160048110611b22577f4e487b7100000000000000000000000000000000000000000000000000000000600052603260045260246000fd5b602002018181525050826000015181600260048110611b6a577f4e487b7100000000000000000000000000000000000000000000000000000000600052603260045260246000fd5b602002018181525050826020015181600360048110611bb2577f4e487b7100000000000000000000000000000000000000000000000000000000600052603260045260246000fd5b602002018181525050600060608360c08460066107d05a03fa90508060008114611bdb57611bdd565bfe5b5080611c1e576040517f08c379a0000000000000000000000000000000000000000000000000000000008152600401611c1590612fcb565b60405180910390fd5b505092915050565b611c2e612701565b60007f30644e72e131a029b85045b68181585d97816a916871ca8d3c208c16d87cfd47905060008360000151148015611c6b575060008360200151145b15611c8f576040518060400160405280600081526020016000815250915050611cc6565b604051806040016040528084600001518152602001828560200151611cb491906134e9565b83611cbf91906133de565b8152509150505b919050565b600080600467ffffffffffffffff811115611d0f577f4e487b7100000000000000000000000000000000000000000000000000000000600052604160045260246000fd5b604051908082528060200260200182016040528015611d4857816020015b611d35612701565b815260200190600190039081611d2d5790505b5090506000600467ffffffffffffffff811115611d8e577f4e487b7100000000000000000000000000000000000000000000000000000000600052604160045260246000fd5b604051908082528060200260200182016040528015611dc757816020015b611db461275f565b815260200190600190039081611dac5790505b5090508a82600081518110611e05577f4e487b7100000000000000000000000000000000000000000000000000000000600052603260045260246000fd5b60200260200101819052508882600181518110611e4b577f4e487b7100000000000000000000000000000000000000000000000000000000600052603260045260246000fd5b60200260200101819052508682600281518110611e91577f4e487b7100000000000000000000000000000000000000000000000000000000600052603260045260246000fd5b60200260200101819052508482600381518110611ed7577f4e487b7100000000000000000000000000000000000000000000000000000000600052603260045260246000fd5b60200260200101819052508981600081518110611f1d577f4e487b7100000000000000000000000000000000000000000000000000000000600052603260045260246000fd5b60200260200101819052508781600181518110611f63577f4e487b7100000000000000000000000000000000000000000000000000000000600052603260045260246000fd5b60200260200101819052508581600281518110611fa9577f4e487b7100000000000000000000000000000000000000000000000000000000600052603260045260246000fd5b60200260200101819052508381600381518110611fef577f4e487b7100000000000000000000000000000000000000000000000000000000600052603260045260246000fd5b60200260200101819052506120048282612014565b9250505098975050505050505050565b6000815183511461205a576040517f08c379a000000000000000000000000000000000000000000000000000000000815260040161205190612f8b565b60405180910390fd5b600083519050600060068261206f9190613384565b905060008167ffffffffffffffff8111156120b3577f4e487b7100000000000000000000000000000000000000000000000000000000600052604160045260246000fd5b6040519080825280602002602001820160405280156120e15781602001602082028036833780820191505090505b50905060005b838110156125c657868181518110612128577f4e487b7100000000000000000000000000000000000000000000000000000000600052603260045260246000fd5b6020026020010151600001518260006006846121449190613384565b61214e919061318c565b81518110612185577f4e487b7100000000000000000000000000000000000000000000000000000000600052603260045260246000fd5b6020026020010181815250508681815181106121ca577f4e487b7100000000000000000000000000000000000000000000000000000000600052603260045260246000fd5b6020026020010151602001518260016006846121e69190613384565b6121f0919061318c565b81518110612227577f4e487b7100000000000000000000000000000000000000000000000000000000600052603260045260246000fd5b60200260200101818152505085818151811061226c577f4e487b7100000000000000000000000000000000000000000000000000000000600052603260045260246000fd5b6020026020010151600001516000600281106122b1577f4e487b7100000000000000000000000000000000000000000000000000000000600052603260045260246000fd5b60200201518260026006846122c69190613384565b6122d0919061318c565b81518110612307577f4e487b7100000000000000000000000000000000000000000000000000000000600052603260045260246000fd5b60200260200101818152505085818151811061234c577f4e487b7100000000000000000000000000000000000000000000000000000000600052603260045260246000fd5b602002602001015160000151600160028110612391577f4e487b7100000000000000000000000000000000000000000000000000000000600052603260045260246000fd5b60200201518260036006846123a69190613384565b6123b0919061318c565b815181106123e7577f4e487b7100000000000000000000000000000000000000000000000000000000600052603260045260246000fd5b60200260200101818152505085818151811061242c577f4e487b7100000000000000000000000000000000000000000000000000000000600052603260045260246000fd5b602002602001015160200151600060028110612471577f4e487b7100000000000000000000000000000000000000000000000000000000600052603260045260246000fd5b60200201518260046006846124869190613384565b612490919061318c565b815181106124c7577f4e487b7100000000000000000000000000000000000000000000000000000000600052603260045260246000fd5b60200260200101818152505085818151811061250c577f4e487b7100000000000000000000000000000000000000000000000000000000600052603260045260246000fd5b602002602001015160200151600160028110612551577f4e487b7100000000000000000000000000000000000000000000000000000000600052603260045260246000fd5b60200201518260056006846125669190613384565b612570919061318c565b815181106125a7577f4e487b7100000000000000000000000000000000000000000000000000000000600052603260045260246000fd5b60200260200101818152505080806125be906134a0565b9150506120e7565b506125cf612785565b6000602082602086026020860160086107d05a03fa905080600081146125f4576125f6565bfe5b5080612637576040517f08c379a000000000000000000000000000000000000000000000000000000000815260040161262e9061300b565b60405180910390fd5b600082600060018110612673577f4e487b7100000000000000000000000000000000000000000000000000000000600052603260045260246000fd5b602002015114159550505050505092915050565b604051806060016040528061269a612701565b81526020016126a761275f565b81526020016126b4612701565b81525090565b6040518060a001604052806126cd612701565b81526020016126da61275f565b81526020016126e761275f565b81526020016126f461275f565b8152602001606081525090565b604051806040016040528060008152602001600081525090565b6040518060600160405280600390602082028036833780820191505090505090565b6040518060800160405280600490602082028036833780820191505090505090565b60405180604001604052806127726127a7565b815260200161277f6127a7565b81525090565b6040518060200160405280600190602082028036833780820191505090505090565b6040518060400160405280600290602082028036833780820191505090505090565b60006127dc6127d7846130c9565b613098565b905080828560408602820111156127f257600080fd5b60005b85811015612822578161280888826128cb565b8452602084019350604083019250506001810190506127f5565b5050509392505050565b600061283f61283a846130ef565b613098565b9050808285602086028201111561285557600080fd5b60005b85811015612885578161286b88826128f2565b845260208401935060208301925050600181019050612858565b5050509392505050565b60008135905061289e816135b4565b92915050565b600082601f8301126128b557600080fd5b60026128c28482856127c9565b91505092915050565b600082601f8301126128dc57600080fd5b60026128e984828561282c565b91505092915050565b600081359050612901816135cb565b92915050565b600081519050612916816135cb565b92915050565b600080600080600080610180878903121561293657600080fd5b600061294489828a0161288f565b965050602061295589828a016128f2565b955050604061296689828a016128cb565b945050608061297789828a016128a4565b93505061010061298989828a016128cb565b92505061014061299b89828a016128cb565b9150509295509295509295565b60008060008061014085870312156129bf57600080fd5b60006129cd878288016128cb565b94505060406129de878288016128a4565b93505060c06129ef878288016128cb565b925050610100612a01878288016128cb565b91505092959194509250565b600060208284031215612a1f57600080fd5b6000612a2d848285016128f2565b91505092915050565b600060208284031215612a4857600080fd5b6000612a5684828501612907565b91505092915050565b6000612a6b8383612e2e565b60208301905092915050565b6000612a838383612e4c565b60208301905092915050565b612a988161346a565b82525050565b612aa78161312f565b612ab1818461315f565b9250612abc82613115565b8060005b83811015612aed578151612ad48782612a77565b9650612adf83613145565b925050600181019050612ac0565b505050505050565b6000612b008261313a565b612b0a818561316a565b9350612b158361311f565b8060005b83811015612b46578151612b2d8882612a5f565b9750612b3883613152565b925050600181019050612b19565b5085935050505092915050565b612b5c81613424565b82525050565b6000612b6f601e8361317b565b91507f53656e6420302e3120657468657220746f2074686520636f6e747261637400006000830152602082019050919050565b6000612baf60238361317b565b91507f436f6d6d69746d656e7420686173206265656e20757365642070726576696f7560008301527f736c7900000000000000000000000000000000000000000000000000000000006020830152604082019050919050565b6000612c1560128361317b565b91507f76657269666965722d6261642d696e70757400000000000000000000000000006000830152602082019050919050565b6000612c5560128361317b565b91507f70616972696e672d6d756c2d6661696c656400000000000000000000000000006000830152602082019050919050565b6000612c95601f8361317b565b91507f76657269666965722d6774652d736e61726b2d7363616c61722d6669656c64006000830152602082019050919050565b6000612cd560168361317b565b91507f70616972696e672d6c656e677468732d6661696c6564000000000000000000006000830152602082019050919050565b6000612d1560278361317b565b91507f57726f6e672070726f6f662073656e74206f72206e756c6c696669657220686160008301527f73682075736564000000000000000000000000000000000000000000000000006020830152604082019050919050565b6000612d7b60128361317b565b91507f70616972696e672d6164642d6661696c656400000000000000000000000000006000830152602082019050919050565b6000612dbb60138361317b565b91507f4d65726b6c6520747265652069732066756c6c000000000000000000000000006000830152602082019050919050565b6000612dfb60158361317b565b91507f70616972696e672d6f70636f64652d6661696c656400000000000000000000006000830152602082019050919050565b612e3781613450565b82525050565b612e4681613450565b82525050565b612e5581613450565b82525050565b612e648161345a565b82525050565b6000604082019050612e7f6000830185612a8f565b612e8c6020830184612e3d565b9392505050565b6000604082019050612ea86000830184612a9e565b92915050565b60006020820190508181036000830152612ec88184612af5565b905092915050565b6000602082019050612ee56000830184612b53565b92915050565b60006020820190508181036000830152612f0481612b62565b9050919050565b60006020820190508181036000830152612f2481612ba2565b9050919050565b60006020820190508181036000830152612f4481612c08565b9050919050565b60006020820190508181036000830152612f6481612c48565b9050919050565b60006020820190508181036000830152612f8481612c88565b9050919050565b60006020820190508181036000830152612fa481612cc8565b9050919050565b60006020820190508181036000830152612fc481612d08565b9050919050565b60006020820190508181036000830152612fe481612d6e565b9050919050565b6000602082019050818103600083015261300481612dae565b9050919050565b6000602082019050818103600083015261302481612dee565b9050919050565b60006020820190506130406000830184612e3d565b92915050565b600060608201905061305b6000830186612e3d565b6130686020830185612e3d565b6130756040830184612e3d565b949350505050565b60006020820190506130926000830184612e5b565b92915050565b6000604051905081810181811067ffffffffffffffff821117156130bf576130be613578565b5b8060405250919050565b600067ffffffffffffffff8211156130e4576130e3613578565b5b602082029050919050565b600067ffffffffffffffff82111561310a57613109613578565b5b602082029050919050565b6000819050919050565b6000819050602082019050919050565b600060029050919050565b600081519050919050565b6000602082019050919050565b6000602082019050919050565b600081905092915050565b600082825260208201905092915050565b600082825260208201905092915050565b600061319782613450565b91506131a283613450565b9250827fffffffffffffffffffffffffffffffffffffffffffffffffffffffffffffffff038211156131d7576131d661351a565b5b828201905092915050565b60006131ed82613450565b91506131f883613450565b92508261320857613207613549565b5b828204905092915050565b6000808291508390505b600185111561325d578086048111156132395761323861351a565b5b60018516156132485780820291505b8081029050613256856135a7565b945061321d565b94509492505050565b600061327182613450565b915061327c83613450565b92506132a97fffffffffffffffffffffffffffffffffffffffffffffffffffffffffffffffff84846132b1565b905092915050565b6000826132c1576001905061337d565b816132cf576000905061337d565b81600181146132e557600281146132ef5761331e565b600191505061337d565b60ff8411156133015761330061351a565b5b8360020a9150848211156133185761331761351a565b5b5061337d565b5060208310610133831016604e8410600b84101617156133535782820a90508381111561334e5761334d61351a565b5b61337d565b6133608484846001613213565b925090508184048111156133775761337661351a565b5b81810290505b9392505050565b600061338f82613450565b915061339a83613450565b9250817fffffffffffffffffffffffffffffffffffffffffffffffffffffffffffffffff04831182151516156133d3576133d261351a565b5b828202905092915050565b60006133e982613450565b91506133f483613450565b9250828210156134075761340661351a565b5b828203905092915050565b600061341d82613430565b9050919050565b60008115159050919050565b600073ffffffffffffffffffffffffffffffffffffffff82169050919050565b6000819050919050565b600063ffffffff82169050919050565b60006134758261347c565b9050919050565b60006134878261348e565b9050919050565b600061349982613430565b9050919050565b60006134ab82613450565b91507fffffffffffffffffffffffffffffffffffffffffffffffffffffffffffffffff8214156134de576134dd61351a565b5b600182019050919050565b60006134f482613450565b91506134ff83613450565b92508261350f5761350e613549565b5b828206905092915050565b7f4e487b7100000000000000000000000000000000000000000000000000000000600052601160045260246000fd5b7f4e487b7100000000000000000000000000000000000000000000000000000000600052601260045260246000fd5b7f4e487b7100000000000000000000000000000000000000000000000000000000600052604160045260246000fd5b60008160011c9050919050565b6135bd81613412565b81146135c857600080fd5b50565b6135d481613450565b81146135df57600080fd5b5056fea2646970667358221220e55cfda0d18562209393f219db3800cb09a1aee69dc85ad80028ea0302970a3d64736f6c63430008000033",
  "linkReferences": {
    "contracts/Poseidon.sol": {
      "PoseidonT3": [
        {
          "length": 20,
          "start": 225
        },
        {
          "length": 20,
          "start": 647
        },
        {
          "length": 20,
          "start": 4459
        },
        {
          "length": 20,
          "start": 4906
        }
      ]
    }
  },
  "deployedLinkReferences": {
    "contracts/Poseidon.sol": {
      "PoseidonT3": [
        {
          "length": 20,
          "start": 2154
        },
        {
          "length": 20,
          "start": 2601
        }
      ]
    }
  }
}